:1070000055C00000B7C00000B5C00000B3C000000C
:10701000B1C00000AFC00000ADC00000ABC00000B8
:10702000A9C00000A7C00000C9C50000A3C000009F
:10703000A1C000009FC000009DC000009BC00000D8
:1070400099C0000097C0000095C0000093C00000E8
:107050000FC200008FC000008DC000008BC0000078
:1070600089C0000087C0000085C0000083C0000008
:1070700081C000007FC000007DC000007BC0000018
:1070800079C0000077C0000075C0000073C0000028
:1070900071C000006FC000006DC000006BC0000038
:1070A00069C0000067C0000065C0000011241FBE59
:1070B000CFEFDAE0DEBFCDBF89E0E3E0F0E0809320
:1070C000570084918E7F91F004B601FE0AC081E0E2
:1070D000209181013091820122343C4D19F080E0F1
:1070E00001C081E094B79D7F94BF11C004B603FE38
:1070F0000AC081E0209181013091820122343C4D0F
:1071000019F080E001C080E094B7977F94BF30E031
:1071100020E0F901459154918823B9F04F3F5F4F2A
:10712000A1F084B7877F84BF0FB6F894A8958091AB
:107130006000886180936000109260000FBE109222
:10714000820110928101F901099511E0A0E0B1E0FE
:10715000E0EEFEE702C005900D92A436B107D9F724
:1071600021E0A4E6B1E001C01D92A138B207E1F729
:1071700036D1B4C645CF8150A0F02091F300909154
:10718000F200322F292F232B69F49091E8009B7F86
:107190009093E8009091E80092FDEDCF9EB391119D
:1071A000F9CF08959091F100E6CFECE6F1E035815A
:1071B0002481938182819093660180936701C90144
:1071C000909364018093650108951F93CF93DF939B
:1071D00000D01F92CDB7DEB780916C0190917601FF
:1071E0009923D9F1843021F580916D01811123C05B
:1071F00080916E018F3FF9F480916D01833009F029
:107200009AC081E08093750180916E01E0917201D6
:10721000F0917301309709F473C08130B9F4909103
:107220007101809170019093690180936A010EC091
:10723000853009F4A4C08AE08093000183E0809344
:1072400074018091EB0080628093EB000F900F90AF
:107250000F90DF91CF911F910895843069F260F40F
:107260008130E1F0833091F780916D01982F9D7FFF
:1072700061F59BDF89E026C0853009F480C0863047
:1072800029F780916D01833009F780916E0181119A
:10729000DDCF80916F0180936801D8CF10916D018F
:1072A0001230A0F682DF11110CC08091660190911E
:1072B000670123E0FC0120935700E89507B600FC26
:1072C000FDCF85E080930001C1CF813009F0BECFB2
:1072D000F0E0E0E084918F3F69F010926801F09354
:1072E0006701E09366018AE08093000185E0809366
:1072F0007401ACCF3196E11520E7F20759F7A6CF1C
:10730000811111C082E49CED9093820180938101F0
:1073100088E19CE00FB6F894A895809360000FBEBA
:107320009093600093CF85919491019609F08ECF50
:10733000109201018BCF811189CF80916E018F3F17
:1073400009F084CFF0E0E0E083E095E0809357001F
:10735000E89507B600FCFDCF90935700E89507B677
:1073600000FCFDCFE058FF4FE11520E7F20771F771
:1073700081E180935700E8951092760167CF809164
:10738000020190910301A091040189839A83AB8348
:10739000E0916E0180916D01811109C0E33080F4AC
:1073A000EC0FFD2FF11D818180936B014FCF813058
:1073B00009F04CCFE13379F040F488E5E033A1F3F4
:1073C0008AE08093000188E092CFE03631F087E8D0
:1073D000E13651F3F5CF8EE1E7CF85E9E5CF84B70C
:1073E000877F84BF0FB6F894A8958091600088616C
:1073F00080936000109260000FBE80E890E00FB6AE
:10740000F89480936100909361000FBEC1E0C5BF06
:1074100082E085BFB6D38AB1806F8AB98BB18F7095
:107420008BB9C0936F0083E0809381008BB18F7024
:1074300080618BB9789480910101811117C080918E
:107440007501811113C04AD38AB18F708AB98BB18B
:107450008F708BB910926F001092810081E085BF10
:1074600015BEE0916901F0916A01099515D5E3CF48
:107470001F920F920FB60F9211248F9380E389B958
:107480008F910F900FBE0F901F9018957F928F9243
:107490009F92AF92BF92CF92DF92EF92FF920F93A3
:1074A0001F93CF93DF93809179018F778132A9F475
:1074B00080E389B980917F0190918001909373015D
:1074C0008093720180917A01833009F4C2C198F4EB
:1074D000813009F1823009F424C1DF91CF911F91ED
:1074E0000F91FF90EF90DF90CF90BF90AF909F9063
:1074F0008F907F900895853009F4D1C108F4C7C1F9
:10750000863059F78091E800877F8093E80082E019
:107510008093000125C08091E800877F8093E80078
:1075200080917501882319F050DE109275018091C9
:10753000720190917301009729F5809100018530C7
:1075400051F48091720190917301892B09F044C02C
:1075500082E0809300018091E8008B7F8093E800B7
:10756000DF91CF911F910F91FF90EF90DF90CF901F
:10757000BF90AF909F908F907F9093C22EB32223A5
:1075800009F4ABCF2091E80022FFF8CF2091F10061
:1075900020936C0101979093730180937201EDE643
:1075A000F1E08091F3009091F200892798278927D4
:1075B000892B81F08091F1008193809172019091EB
:1075C00073010197909373018093720121E0E23778
:1075D000F20739F7FADDB1CF8AE1CDDD009166011E
:1075E00010916701802F8F71C6DDC0916401D09129
:1075F00065012196C01BD10B80916D01811181C065
:10760000D695C795C80120916801A22FB0E0480126
:1076100020E011E005E033E0732EAE014150510946
:10762000CD2B79F48091640190916501909367016D
:107630008093660181E180935700E89580E19BDDAE
:107640008ACF6091F3003091F200762F632F672B81
:1076500061F1E091F1003091F1006E2F732FFC0188
:107660000B0110935700E89511242F5F6C017D01E9
:10767000F2E0CF0ED11CE11CF11CD701C601203471
:1076800009F5F40100935700E89507B600FCFDCF1B
:1076900041155105D1F0F60170925700E89507B6F3
:1076A00000FCFDCF20E0460110C03091E8003B7F98
:1076B0003093E8003091E80032FDCBCF3EB331117A
:1076C000F9CF0BCF41155105E1F2EA01A6CF809128
:1076D000F3009091F200892798278927892BA1F040
:1076E00021976091F1008091660190916701E4D348
:1076F0008091660190916701019690936701809354
:107700006601209721F79ACF8091E8008B7F8093C4
:10771000E8008091E80082FDE3CF8EB38111F9CFBC
:10772000DCCE8091E800877F8093E8008091E800BC
:1077300080FF16C0809100018930C9F08A30A1F421
:1077400080916D01813081F4909166018091670193
:107750009093F1008093F1008091E8008E7FFECE3F
:107760008EB38111E3CFB9CE80916B01F3CF20911D
:10777000660130916701C0916401D0916501219645
:10778000C21BD30B80916D01811137C0D695C7956F
:10779000C90120916801A22FB0E0219760F4809187
:1077A000640190916501909367018093660182E086
:1077B00080930001D1CF2091F3003091F200232774
:1077C000322723272032310559F0FC0125913491CD
:1077D0002093F1003093F1000296A11DB11DDDCF81
:1077E0002091E8002E7F2093E8002091E80020FD02
:1077F000ECCF2EB32111F9CF70CE8230C1F6209795
:10780000B1F28091F3009091F2008927982789279F
:10781000809791F0809166019091670145D38093A4
:10782000F100809166019091670101969093670144
:10783000809366012197E3CF8091E8008E7F80934B
:10784000E8008091E80080FDE5CF8EB38111F9CF8B
:1078500044CE8091E800877F8093E8008091E80023
:1078600080FF11C0809174018093F1001092F100AB
:107870001092F1001092F100809100018093F100CC
:107880001092F10069CF8EB38111E8CF26CE80919E
:10789000E800877F8093E8001092740161CE8091A8
:1078A000E800877F8093E8008091E80080FF03C0B4
:1078B000809100014FCF8EB38111F6CF0ECE292FCC
:1078C00030E02230310571F02330310581F0213074
:1078D000310511F582E190E022E531E0FA013183D2
:1078E000208308958BE190E027E331E0F7CF8823F0
:1078F00049F0813061F0823079F482E190E025E056
:1079000031E0ECCF84E090E023E331E0E7CF88E1A1
:1079100090E029E131E0E2CF90E080E030E020E04B
:10792000DDCF07B600FCFDCFF999FECF23E0FB01C8
:1079300020935700E89507B600FCFDCF81E18093C6
:107940005700E895089507B600FCFDCFF999FECFE2
:1079500025E0FB0120935700E89507B600FCFDCF1A
:1079600081E180935700E895089507B600FCFDCFAC
:10797000F999FECF21E0FB010A0120935700E89519
:107980001124089521E2FC01209357008491089569
:1079900029E0FC01209357008491089589E0E1E0FB
:1079A000F0E0809357008491089507B600FCFDCF66
:1079B000F999FECF809599E0E1E0F0E0082E9093F0
:1079C0005700E8950895FC0180917F019091800116
:1079D00086179707A0F06115710529F49091E800CA
:1079E0009E7F9093E80090E06115710551F491112C
:1079F00008C08091E80082FF34C080E00895BC0197
:107A0000F2CF8EB38823C1F18530C1F18091E800B7
:107A100083FD30C08091E80082FDEBCF8091E800CB
:107A200080FFE2CF2091F3008091F200322F282FC7
:107A30006115710519F02032310558F091E02032BE
:107A4000310509F090E02091E8002E7F2093E800B6
:107A5000CBCF81918093F100615071092F5F3F4F2F
:107A6000E7CF8EB3882341F0853041F08091E80064
:107A700083FFBFCF81E0089582E0089583E00895F9
:107A8000EBEEF0E0808181608083EDEEF0E010822B
:107A90006093EC0040838091EE00881F8827881F48
:107AA00008958091790187FF11C08091E80082FFDD
:107AB00006C08091E8008B7F8093E80003C08EB3FE
:107AC0008111F3CF08958EB38823E1F38091E8000C
:107AD00080FFF9CF8091E8008E7FEECF62D069D031
:107AE000E0EEF0E0808181608083E8EDF0E080816D
:107AF0008F77808319BCA7EDB0E08C918E7F8C933B
:107B000080818F7E80831092780108950F931F9358
:107B1000CF93DF9346D04DD0C8EDD0E088818F77EA
:107B2000888388818068888388818F7D888319BC59
:107B30001EBA1092770100EE10E0F80180818B7F71
:107B4000808388818160888342E260E080E098DF02
:107B5000E1EEF0E080818E7F8083E2EEF0E08081D4
:107B600081608083808188608083F80180818E7F3E
:107B70008083888180618883DF91CF911F910F91ED
:107B80000895E8EDF0E080818F7E8083E7EDF0E0FE
:107B900080818160808384E082BF81E0809378016E
:107BA000B5CFE8EDF0E080818E7F80831092E20017
:107BB00008951092DA001092E10008951F920F923A
:107BC0000FB60F9211242F933F934F935F936F93B0
:107BD0007F938F939F93AF93BF93EF93FF93809186
:107BE000DA0080FF17C08091D80080FF13C0809119
:107BF000DA008E7F8093DA008091D90080FF86C002
:107C000080E189BD82E189BD09B400FEFDCF81E03C
:107C10008EBB41D18091E10080FF17C08091E200CE
:107C200080FF13C08091E2008E7F8093E2008091FC
:107C3000E20080618093E2008091D80080628093AE
:107C4000D80019BC85E08EBB26D18091E10084FF6D
:107C500027C08091E20084FF23C080E189BD82E1DA
:107C600089BD09B400FEFDCF8091D8008F7D80933F
:107C7000D8008091E1008F7E8093E1008091E20046
:107C80008F7E8093E2008091E20081608093E20029
:107C900080917701882309F43DC084E08EBBFBD03E
:107CA0008091E10083FF21C08091E20083FF1DC02D
:107CB0008091E100877F8093E10082E08EBB10928B
:107CC00077018091E1008E7F8093E1008091E20056
:107CD0008E7F8093E2008091E20080618093E200D9
:107CE00042E260E080E0CCDED6D0FF91EF91BF9120
:107CF000AF919F918F917F916F915F914F913F9144
:107D00002F910F900FBE0F901F90189519BC1EBA9F
:107D1000C2D080CF8091E30087FD02C081E0BECF5A
:107D200083E0BCCF1F93CF93DF9300D0CDB7DEB7F6
:107D3000E9E7F1E081E891E02091F10021938E17CD
:107D40009F07D1F7A3DB8091E80083FF0DC08091EE
:107D5000790190917A01963009F466C0C8F49923AC
:107D600089F1953009F441C08091E80083FF0AC091
:107D70008091E800877F8093E8008091EB0080622B
:107D80008093EB000F900F90DF91CF911F9108959A
:107D9000983009F46BC0993039F78111E5CF909193
:107DA0007B01923008F78091E800877F8093E8009C
:107DB0009093770176DE80917701882309F463C080
:107DC00084E066C08D7F803879F68091E800877FF7
:107DD0008093E8001092F1001092F1008091E80089
:107DE0008E7F8093E8005DDEBFCF8111BDCF109103
:107DF0007B011F778091E3008078812B8093E300E3
:107E00008091E800877F8093E8004BDE8091E80056
:107E100080FFFCCF8091E30080688093E30082E0E4
:107E2000111183E08EBBA0CF8058823008F09CCF28
:107E300060917D0170917E01AE014F5F5F4F809137
:107E40007B0190917C013BDDBC01892B09F48CCF37
:107E50009091E800977F9093E80089819A81B3DD43
:107E60008091E8008B7F8093E8007ECF803809F016
:107E70007BCF8091E800877F8093E8008091770135
:107E80008093F100ABCF8091E30087FD99CF81E033
:107E90008EBB01D069CF08958EB3882321F08091E5
:107EA000E80083FD3FCF0895F999FECF92BD81BDD3
:107EB000F89A992780B50895262FF999FECF92BD9B
:107EC00081BDF89A019700B4021639F01FBA20BD9F
:107ED0000FB6F894FA9AF99A0FBE0895F894FFCF66
:107EE000020120DCFB12034C00550046004100203B
:107EF000004400460055000000180344006500617E
:107F0000006E002000430061006D0065007200619A
:107F10000000000403090409021B00010100803273
:107F20000904000000FE0102000921030000000C0A
:107F300010011201100100000020EB03F42F0000DB
:047F40000102000139
:107FA000C0CCD1CCE2CCEECCF3CCF8CCFECC089556
:087FB000089508950895089555
:107FE000DFCFDFCFDFCFDFCFDFCFDFCFDFCFDFCF21
:087FF000DFCFDFCFDFCFDFCFD1
:087FF8000070000010DFFBDC4B
:040000030000700089
:00000001FF
